:10000000F7C200000C94DC2410C300000EC30000F3
:100010000CC300000AC3000008C3000006C30000B0
:1000200004C3000002C300000C94B0290C947C2A85
:100030000C948E23FAC20000F8C20000F6C2000041
:10004000F4C20000F2C20000F0C20000EEC20000E4
:10005000ECC200000C940524E8C20000E6C20000D7
:10006000E4C20000E2C20000E0C20000DEC2000004
:10007000DCC20000DAC20000D8C20000D6C2000014
:10008000D4C20000D2C20000D0C20000CEC2000024
:10009000CCC20000CAC20000C8C20000C6C2000034
:1000A000C4C20000C2C20000C0C200006E706D2059
:1000B00072756E20007072652D636F6D6D697400CE
:1000C0006C696E743A66697800646576006C696E76
:1000D0007400645203570457055706570757290001
:1000E00014001A000800150017002B000400160069
:1000F000070009000A00E0001D001B0006001900AF
:100100000500000000000000000028001357000058
:100110000000000024521457E300085709570A57FB
:100120000B570C574C001C0018000C001200130059
:100130002A000B000D000E000F00005701571100A0
:100140001000360037000257E10014572C00000061
:10015000000000000000E2001357245200000000DD
:100160000000010001000100010001000100010088
:10017000035704570557065707570100310024025B
:100180002E022D002E00010011572D022002220206
:100190003102000000000100010001000100000028
:1001A0000000010001000100010001000100010048
:1001B000010001000100085709570A570B570C5757
:1001C00001000D570E570F5710570100010037025D
:1001D00045000100010001000100010001000100D3
:1001E000010000000000010001000100010000000A
:1001F00000000100010001000100010001000100F8
:10020000457E447E407E417E467E01000100AC007A
:10021000AE00AB00010001000100A800AA00A90087
:1002200001000000000001000100010001000000C9
:1002300000000100010001000100010001000100B7
:10024000010001000100427E4A0052004D00437E41
:1002500001002F18500051004F003008010001002C
:10026000501401004F1401000100010001000100C1
:100270000100000000000100010001000100000079
:100280000000010001000100010001000100010067
:100290000100010001000100010001000100010056
:1002A0004C0009160100010001000100060A0100CE
:1002B0000100000000000100010001000100000039
:1002C0000000010001000100010001000100010027
:1002D000010001000100125759005A005B00220280
:1002E000010062005C005D005E00010001002D0065
:1002F0005F006000610037000100010001000100A3
:1003000001000000000001000100010001000000E8
:1003100000000100010001000100010001000100D6
:100320000100010001000100010001000100DD00E9
:10033000DE00DF00010001000100010001000100FA
:1003400001000000000001000100010001000000A8
:100350000000010001000100010001000100010096
:100360000100010001000100D100CD00D200010018
:100370000100D900CF00CE00D00001000100DA005A
:100380000100010001000100010001000100010065
:100390000100000000000100010001000100000058
:1003A00000001C00180000001900050000000700F4
:1003B00009000D000E0000000D000E0000000700F7
:1003C000090000000E000F0000000C0012000000E9
:1003D0001000370000001B00190000001600070085
:1003E000000014001A00000009000A000B000D00B4
:1003F000000000000000000000002A2B2800000080
:1004000000000000000000000000000000290000C3
:1004100000002C1E3420212224342627252E362DA0
:100420003738271E1F202122232425263333362E3A
:1004300037381F0405060708090A0B0C0D0E0F10AC
:100440001112131415161718191A1B1C1D2F3130F1
:10045000232D350405060708090A0B0C0D0E0F1095
:100460001112131415161718191A1B1C1D2F3130D1
:10047000354C0000000000000000000000000000FB
:10048000000000000000000000000000000000006C
:100490000000000000007E0F00D4FFFFFFC7000037
:1004A00000782C03440061006300740079006C0044
:1004B0002D004D0061006E00750066006F00720037
:1004C0006D0020002800350078003600290000006B
:1004D0000E037400730068006F0072007400000067
:1004E0000403090409023B00020100A0FA09040008
:1004F000000103010100092111010001224400074C
:10050000058103080001090401000103000000093E
:100510002111010001227B00070582032000011246
:10052000010002000000084D4436350100010200C0
:100530000105010902A10185020901A100050919AE
:100540000129081500250195087501810205010999
:100550003009311581257F95027508810609381506
:1005600081257F950175088106050C0A38021581E1
:10057000257F950175088106C0C005010980A1018C
:10058000850319012AB700150126B70095017510DA
:100590008100C0050C0901A101850419012AA002EE
:1005A000150126A002950175108100C005010906FC
:1005B000A101050719E029E7150025019508750136
:1005C00081029501750881010507190029FF1500B1
:1005D00026FF0095067508810005081901290515F3
:1005E000002501950575019102950175039101C0E2
:1005F00011241FBECFEFDAE0DEBFCDBF13E0A0E0D5
:10060000B1E0EEEAFAE502C005900D92A834B10718
:10061000D9F725E0A8E4B3E001C01D92A531B207E7
:10062000E1F70E94D8150C94D62CEACCCF93DF9337
:10063000EB01FC01258120FF0AC08281813051F449
:100640008A819B8104D18A819B818C839D83DF91E8
:10065000CF91089588819981FAD088819981F5CFC9
:10066000CF93DF93EB018C819D81009719F003D12B
:100670001C821D82DF91CF910895CF93DF93EB0110
:10068000FC01858180FF07C0898149D681E08A838A
:10069000DF91CF910895888139D6FACFCF93DF9338
:1006A000EB018A81811519F0898147D61A82DF9181
:1006B000CF910895EF92FF920F931F93CF93DF9303
:1006C000EC017B01975511F50C2F10E0C331F0F4CC
:1006D0008C2F0E94E820F7012581211135C0009759
:1006E00099F1FC012281211579F1858181FD2CC0D0
:1006F0008AE0809FF001819FF00D1124EC5AFE4F9B
:100700000084F185E02D80819181E1D0F701858120
:100710008115D1F0FE01E054FE47E730F105A0F469
:10072000E852F34D0C94342C60E08DEC90E00E9484
:10073000931F0AC060E089EC90E0F9CF8EE098E06A
:10074000C6D08FE298E0C3D081E0CDB7DEB7E6E057
:100750000C94622C8EE098E0BAD080E398E0F3CF5E
:1007600060E080EC90E0E3CF60E085EB90E0DFCFED
:1007700060E08CEA90E0DBCF8530C8F46C30B8F4F0
:100780004630A8F450E096E0699F400D511D1124B9
:1007900098E4899F400D511D1124FA01EE0FFF1FAF
:1007A000EE52FF4F85919591282F822F089521E0D9
:1007B00090E0FBCFE1CF08958CE090E008958C307D
:1007C000910550F447E0489F9001499F300D112456
:1007D000C90180509F4F089580E090E0089585E121
:1007E00090E008958531910550F44AE0489F9001CA
:1007F000499F300D1124C9018C5A9E4F089580E005
:1008000090E008959C0191509F31B0F4832F817046
:1008100034FF0AC08295807F31FD806232FD8064A2
:1008200033FF0BC08068089531FD826032FD846023
:1008300033FF03C08860089580E00895CF93DF936D
:10084000EB01E0DFFE010995DF91CF910895CF9391
:10085000DF93EC01805E9109089720F06EEE78E05E
:10086000209711F466EE76E0CE01E8DF8C2FB3D14D
:10087000DF91CF910895CF93DF93EC0138D2CE0171
:10088000805E9109089720F063EF78E0209711F4DB
:100890006BEE76E0CE01D2DFDF91CF9108950F931A
:1008A0001F93CF93DF938C01EB01D1DF209739F4B5
:1008B000C801E1DFDF91CF911F910F9108958FE97A
:1008C0009FE00197F1F700C000002197EFCF60E5AE
:1008D00070E08933910511F060E070E0E0CF81E0D5
:1008E000089581E00895FBCF089581E00895E2CE58
:1008F000089508950895FDCF089508950895A6E0F8
:10090000B0E0E5E8F4E00C94492C49835A839E83D7
:1009100030914F0389819A81311117C03E81311581
:1009200089F0211579F0B1D5182F682F89819A8126
:100930008BD569817A81812F0E9474102696E3E01D
:100940000C94652C92D5182FF4CF9FD569817A81AC
:10095000F3CFFC01262F87819085009739F44081E1
:1009600051816281738184819581C9CF0895CF932C
:10097000DF93EC0161E0EDDFBE01B3DF811569F0CB
:1009800061E0CE01E6DFBE01AEDF811531F061E04E
:10099000CE01DFDFBE010E948E188170DF91CF9102
:1009A00008950F931F93CF93DF93EC0160E0D1DFA5
:1009B0008C01BE019FDFBE01C8019DDFDF91CF9199
:1009C0001F910F9108950F931F93CF93DF93EC0125
:1009D00061E0BFDF182F092FBE010E94EA208115B8
:1009E00029F061E0CE01B5DF182F092FBE01812F5C
:1009F000902F7BDF811106C080E0DF91CF911F91A6
:100A00000F910895BE01812F902F71DF8115A1F301
:100A1000BE01812F902F0E941616811569F3BE0129
:100A2000812F902F0E941A21811531F3BE01812F51
:100A3000902F0E940D208115F9F2BE01812F902F79
:100A40000E94671B8115C1F2BE01812F902F0E9469
:100A50003E1B811589F2BE01812F902F0E94BC118F
:100A6000811551F2BE01812F902F0E94CE11811568
:100A700019F2BE01812F902F0E94E811BECF21E014
:100A800030E002C0220F331F8A95E2F7C90117C474
:100A9000CF93C82F81E090E00C2E02C0880F991FE1
:100AA0000A94E2F70E94900E8C2FE9DFCF9108950F
:100AB00081E0089581E00895FBCF0895CF93C82F7A
:100AC000A8D38C2FF7DF8C2FF7DFCF91089581E02B
:100AD000F5DF0C94292480E0F1DF0C943A240DDF3B
:100AE0000E94222317C018D009DF0C94262381E02E
:100AF00008950895CF93DF93D82FF9DFC82F81157C
:100B000011F08D2FF6DF8C2FDF91CF91089508958E
:100B1000F1CF089580E0FCCF0E94AF21F9CFCF93B1
:100B20000E94AF21C82F80914A038C1771F0C093A7
:100B30004A030E94F92360934B0370934C03809304
:100B40004D0390934E038C2FE3DFCF910895AFE0D8
:100B5000B0E0EDEAF5E00C94482C4A875B876C879F
:100B60007D878E879F879111F1D71F8218861986FE
:100B700086E0FE013A969E012F5F3F4FD90101901A
:100B80000D928A95E1F78D8181110EC009811A813C
:100B90002B813C814D815E816F817885898518D755
:100BA0002F96E4E00C94642CCE010196E0DE8111D6
:100BB000EDCFF6CFFC012481213019F480819181A1
:100BC00097C40895611521F00E94C31C0C94781DF0
:100BD0000E94031DFBCFCF93C82F8115C9F0823827
:100BE000C9F40E94C52181FD13C089E30E948422BB
:100BF0000E94120E8FEF97EE23E08150904020402C
:100C0000E1F700C0000089E30E948A220E94120ED0
:100C1000CF910895833899F40E94C52180FDF8CFC3
:100C200083E50E948422FED78FEF91EE24E081506D
:100C300090402040E1F700C0000083E5E5CF843814
:100C400099F40E94C52182FDE3CF87E40E948422AB
:100C5000E9D78FEF91EE24E0815090402040E1F7FA
:100C600000C0000087E4D0CF8450813A90F48C2FEC
:100C70000E94721A8111CCCF8C2F0E9448228115BC
:100C800021F08C2F0E948A22CDD78C2F0E948422A3
:100C9000BDCF8C2F805E883048F481E0C1FD84E0B8
:100CA000C0FD880FC2FD82952FD7B0CF8C2F855AFB
:100CB000833030F48C2F8452990B0E94E621A8CF08
:100CC000EC2FE85AEB3150F4F0E0EE0FFF1FE35346
:100CD000FD4F808191810E940D229ACF8C2F8D5CD7
:100CE000833108F095CF61E08C2F6CDF91CF8115B7
:100CF00009F44EC0823861F40E94C52181FF48C0CA
:100D000089E30E9484228ED789E30E948A228AC7BF
:100D1000833851F40E94C52180FF3AC083E50E94C8
:100D2000842280D783E5F1CF843851F40E94C52115
:100D300082FF2EC087E40E94842274D787E4E5CF27
:100D4000982F9450913A08F3982F905E983050F471
:100D5000982F81E091FD84E090FD880F92FD8295AF
:100D6000D9D6D5CF982F955A933020F480E090E0D3
:100D70000C94E621982F985A9B3120F480E090E063
:100D80000C940D22982F9D5C933110F460E01ACFE3
:100D900008951F93CF93DF93182FEB011CDF20974B
:100DA00031F4812FA4DFDF91CF911F9108958FE956
:100DB0009FE00197F1F700C000002197F0CF60E5B8
:100DC00070E0893311F060E070E0E3CF811511F03D
:100DD0009BD628C70895811511F09CD623C7089586
:100DE000A0E0B0E0E6EFF6E00C94442C6C01D62FC6
:100DF000C72FFC011581068102950F707AD6E82E67
:100E00008115E9F0E12E1115D1F08C2F807F80340F
:100E100061F08D2F805E8830E0F08C2F807E8032F4
:100E200021F4D230B0F00115A1F08091E50482FFE9
:100E300010C082E013D75DD691E08927E82EEC2F11
:100E4000E295EF70C03C78F5F0E0E152F34D0C9480
:100E5000342CE12CF4CF0C2F0F70C03110F0029520
:100E6000007F111581F0011549F08D2F805E8830CB
:100E700010F0D11105C0802F47D6D4D68D2F40C099
:100E8000802F56D6FACF8D2F32DF011561F08D2FCE
:100E9000805E883010F0D11103C0802F3BD602C095
:100EA000802F4CD6BFD6E11409F4B3C01ED680FD06
:100EB000B0C0F601158213D632D2C60171D10FD659
:100EC0003CD2A7C08C2F8F70F82EC07FC03219F093
:100ED000F29480EFF822D13038F079F1111509F44D
:100EE00038C00115C9F0CACF8091E50482FD10C059
:100EF000111541F0F11419F08F2D06D693D680E02C
:100F00006ADED1CF80E0F3DEF11469F28F2DC6CF17
:100F1000111551F0013018F48F2D58DFC4CF09F0AE
:100F2000C2CF8F2D2AD6BFCF0111BDCF8F2D53DF5A
:100F30008F2D2ED68F2D13D6B6CF111521F006305A
:100F400008F0B1CFE9CF053008F0ADCF8F2D43DFEA
:100F5000AACF0115D9F3D93349F48FEF97EE23E0E7
:100F6000815090402040E1F700C000008D2FBFDE8F
:100F70009ACF8C2F869586958370813060F009F02A
:100F800092CF8D2F9C2F9370111102C080E090E0C2
:100F90000E940D2288CF8D2F9C2F9370111102C0BB
:100FA00080E090E00E94E6217ECF612F8D2F0ADE47
:100FB0007ACF8C2F8370C1F5111128C04D2F429527
:100FC00046954770440F440F2D2F2F7030E0042EAC
:100FD00002C0220F331F0A94E2F780E090E0D4FFB2
:100FE00009C08FE090E002C0880F991F4A95E2F790
:100FF00080959095C695C695C370822B932BC23071
:1010000079F0C33079F0C13049F062D10E94AF214C
:101010007FDDCDB7DEB7E8E00C94602C52D1F6CF7F
:101020005ED1F4CF4CD1F2CF111559F1C0FFEECF04
:101030004D2F429546954770440F440F2D2F2F702A
:1010400030E0042E02C0220F331F0A94E2F780E042
:1010500090E0D4FF09C08FE090E002C0880F991F94
:101060004A95E2F780959095C695C695C370822BF8
:10107000932BC23061F0C33061F0C13031F082D1C6
:10108000C5CF823008F4C2CFD3CF75D1BFCF81D1C5
:10109000BDCF32D1BBCFCF70111529F08C2F3FD1EE
:1010A0008D2F94DEB3CF8D2F96DE8C2F46D1AECF11
:1010B000D23F31F168F4D03FC1F0D13F89F0111532
:1010C00009F43EC0011509F438C08D2F84DD9ECF90
:1010D000D33FE1F0D43F99F78091E50482FD1EC033
:1010E0008C2F8F71111511F30FC0111539F00530C8
:1010F00008F08CCF8C2F8F7130D188CF0630F8CF8D
:101100008C2F8F711111D2CF0AD180CF111521F000
:101110008C2F8F71FBD07ACFF6D078CF111529F0B4
:1011200063E08C2F8F7183D571CF81E097D502302A
:1011300008F46CCF82E092D569CF8C2F8F71E4CF09
:10114000011571F0D93349F48FEF97EE23E0815008
:1011500090402040E1F700C000008D2FC8DD56CF41
:101160008C2F8F71A3CF0F931F93CF93DF938C019D
:10117000FC0187819085009771F0C1D6D82FC92FC7
:101180000FD19CD06D2F7C2FC8012ADEDF91CF912B
:101190001F910F910895608171818581B2D1EECF49
:1011A000CF93DF93EC018C81811581F0CE010BDCB4
:1011B00081110FC09ED4811549F08D81811531F0C8
:1011C0008091E50482FF02C082E048D5DF91CF9193
:1011D0000895CE01C8DFCE01E4DBF8CF811511F010
:1011E000A7D420C50895811511F0A8D41BC5089572
:1011F00080E090E00E94E62180E090E00E940D22D5
:10120000A5D410D50E94911D0C94781D0E949022A7
:10121000EFCF88D4FBCF282F92959F70963099F00E
:1012200060F4925F9F70923030F4203FB1F038F458
:1012300081E0283E38F080E008959A5FF3CF81E0A6
:10124000243FC9F7089591E0813F09F090E081E0E3
:10125000283E08F080E0892B089581E00895FC0184
:101260008481811531F087819085009719F047D6E8
:10127000D2CF0895808191813BD1FACFA6E0B0E032
:10128000E4E4F9E00C944A2C2696E2E00C94662CF7
:10129000A9E0B0E0EEE4F9E00C94482C2996E4E0F3
:1012A0000C94642C0895FECF0895FDCF0895FADFC5
:1012B000FCDF809376039093770308950895F7CF2A
:1012C00008952091760330917703822B932BEFCFF3
:1012D000209176033091770382239323E8CF2091E6
:1012E00076033091770382279327E1CFDBCF0895F0
:1012F000FDCF0895D7CF0895FDDFFADF8093740303
:1013000090937503089580E090E0F6CF21E030E0FF
:1013100002C0220F331F8A95E2F7C901EDCF21E009
:1013200030E002C0220F331F8A95E2F780917403E8
:1013300090917503822B932BDFCF21E030E002C028
:10134000220F331F8A95E2F7209530958091740320
:101350009091750382239323CFCF21E030E002C028
:10136000220F331F8A95E2F78091740390917503E1
:1013700082279327C1CF2091740330917503822B6C
:10138000932BBACF2091740330917503822393235A
:10139000B3CF209174033091750382279327ACCF8C
:1013A0000895CF93C1E061FDC4E060FDCC0F62FD04
:1013B000C29593E0769567959A95E1F7660F771F4A
:1013C000660F771F460F571FFA0140E050E090E08C
:1013D0006191DF019C01042E02C0369527950A9485
:1013E000E2F72695220B26272C2326272E934F5FE4
:1013F0005F4F4430510561F7CF910895A82FA77032
:1014000023E0969587952A95E1F7880F991F880F15
:10141000991F680F791FFB0140E050E080E02191A7
:1014200030E00A2E02C0369527950A94E2F7217023
:10143000042E01C0220F0A94EAF7822B4F5F5F4F00
:101440004430510561F70895262F9C3068F48630AA
:1014500058F4682F70E086E0989F600D711D11248C
:1014600040E553E0822F9DCF0895292F9C3058F4FA
:10147000863048F490E060E573E036E0239F800D0D
:10148000911D1124BBCF80E00895CF92DF92FF928F
:101490000F931F93CF93DF936C010091740310910E
:1014A00075038091760390917703082B192BCFE079
:1014B000D0E081E090E00C2E02C0880F991F0A94C2
:1014C000E2F780239123892B61F4219790F7F12C87
:1014D0008F2DDF91CF911F910F91FF90DF90CF90D3
:1014E0000895FC2EB6018C2F0AD6019771F3F0CF28
:1014F000CF93DF93EC01C9DFBE0101D6DF91CF911D
:1015000008951F93CF93DF93EB0190914F039115B3
:1015100031F0CB01EDDFDF91CF911F91089581155F
:1015200051F0CB01B2DF182F682FCE018DDFBE0145
:10153000812FE5D5F0CFCB0198DF182FF8CFEF92B0
:10154000FF920F931F93E0907803809179038E119F
:1015500005C01F910F91FF90EF90089589E0E89EDC
:10156000F0011124E658FC4F008111812281338162
:10157000448155816681778180858ADEC7018395A4
:101580008770E82EE2CF0F931F930091C203109152
:10159000C3032091C4033091C5034091C603509109
:1015A000C7036091C8037091C9038091CA0370DEBC
:1015B0001F910F9108958091C803803170F480913C
:1015C000C703811551F0E0917803209179033091A0
:1015D000C3034091C2032E1301C00895BF0189E0E7
:1015E000E89FF0011124DF01A658BC4F14968C919E
:1015F0001497811549F111968C911197831324C08A
:101600008C91841321C015968C91159781111CC063
:1016100012968D919D91A091C403B091C5038A1B30
:101620009B0B883C910580F48091C8038F7080618A
:101630008093C803E058FC4F80818F708061808365
:1016400082EC93E0ADDD7BCF6F5F7F4FFB01E770F6
:10165000C2CF8F929F92AF92BF92DF92EF92FF9292
:101660000F931F93CF93DF93CDB7DEB72F970FB6AE
:10167000F894DEBF0FBECDBF8C0186E0F801DE011D
:101680001A9601900D928A95E1F7F801F580848110
:1016900092EC892E93E0992E9091C603911117C078
:1016A000811509F443C1F11409F481C1C801D7DDE2
:1016B000811509F47CC189E0F801D40101900D92F3
:1016C0008A95E1F7C40176DA76DF5DDF2FC1A0816C
:1016D000A280B380D090C7032091C4033091C5038A
:1016E000A501421B530BD11409F423C1483C5105F9
:1016F00008F0E8C0811509F419C13091C3032181B4
:101700008091C803803108F095C0EF2C23132FC0BF
:101710003091C2033A132BC06091C9037091CA0380
:10172000478150856417750711F5F11027C08F7038
:1017300080618093C80327DF82EC93E031DD8091E4
:10174000C803F8018683E12C8E2D2F960FB6F894EE
:10175000DEBF0FBECDBFDF91CF911F910F91FF90E4
:10176000EF90DF90BF90AF909F908F900895809101
:10177000780330917903E82FF114D1F08091C803F8
:1017800081608093C803DFCFAF0169E06E9FF001F5
:101790001124E658FC4F6181261306C06081A61310
:1017A00003C0658161110EC14F5F5F4FFA01E770A1
:1017B000E313EACF381310C08A859B8599DE292F61
:1017C00022952F709034E0F02A5F2F70223060F164
:1017D000C801E6DCED2CB8CFAC0169E0869FF001D2
:1017E0001124E658FC4F8181281306C08081A8137C
:1017F00003C085818111A7CF4395842F8770DACFED
:101800009F70223038F0911551F0F8019681903197
:1018100030F49ACF911519F0811509F495CF805EB7
:10182000883008F491CFD4CF803F08F48DCF815F0A
:101830008330F7CF23131BC02091C2032A1317C094
:101840004091C9035091CA0327813085421753073D
:1018500071F4F1100CC08683C801A2DC89E0F801A4
:10186000A2ECB3E001900D928A95E1F72ECFC8016A
:10187000F6DC811509F49BC0F11409F498C080913D
:10188000C8038032B0F02091C2033091C303298392
:101890003A83AB82BC829091C6039D831E828F8364
:1018A0008091C9039091CA0388879987CE010196D8
:1018B00077DC89E0F801A2ECB3E001900D928A9503
:1018C000E1F702CF2091C803203188F44A855B8577
:1018D0006C857D858E859F85D1DC82EC93E060DC14
:1018E000F40189E011928A95E9F74DDE2CCF81153C
:1018F000E9F03091C30381813813B9CF8091C203DD
:101900008A13B5CF4091C9035091CA03878190854E
:101910004817590709F0ABCFF110A9CF2683C801AA
:101920003FDCF40189E011928A95E9F7EE24E39413
:101930000BCF483C510508F03DC08115B9F3F114B7
:10194000B1F12091C3038181281328C08091C20383
:101950008A1324C02091C9033091CA0387819085DE
:1019600028173907D9F49091C80390FD0EC0903123
:1019700060F0892F9683907F903F09F46DCF982F68
:10198000907F905F8F70892B66CF89E0F801A2EC81
:10199000B3E001900D928A95E1F7C8CFC8015FDCF2
:1019A000811187CF8091C80381608093C803C801EB
:1019B000F7DBBCCF4A855B856C857D858E859F85F1
:1019C0005DDC8ECF82EC93E0EBDBE2ECF3E089CFE1
:1019D000A2E1B0E0EEEEFCE00C94482C0A871B87F5
:1019E0002C873D874E875F87688B798B8A8BCE01EA
:1019F0000A962FDE4E858115A9F0411549F00A851A
:101A00001B852C853D855F85688979898A8940DCBD
:101A1000809178039091790389133DC06296E4E048
:101A20000C94642C89E09E01265F3F4FF9012950F8
:101A30003109D90101900D928A95E1F7411541F3E1
:101A4000A09179038A2F90E08395877090E0AC0194
:101A5000209178032417150691F099E09A9FD00100
:101A60001124A658BC4F9E012F5F3F4FF9010190F2
:101A70000D929A95E1F74093790361DDC9CFC9DBF7
:101A80001092790310927803E2ECF3E089E011926E
:101A90008A95E9F7BDCF19E0189FC0011124865837
:101AA0009C4FD7DD811509F4B9CFE09178031E9FD3
:101AB000F0011124E658FC4F00811181228133810D
:101AC00044815581668177818085E2DB809178034E
:101AD00090917903019687708093780399CF8091D4
:101AE000D30386958695869508958091D303877054
:101AF00008959091D303977081E0911101C080E027
:101B000008958091DF0308959091DF03982B9093BF
:101B1000DF0308958095982F8091DF0389238093B8
:101B2000DF0308951092DF0308958091DE03089586
:101B30009091DE03982B9093DE0308958095982F63
:101B40008091DE0389238093DE0308951092DE03E3
:101B500008958091D50308950895FECF089590913A
:101B6000D403292F282329F0809589238093D40337
:101B7000F4CF08950895FECF08959091D503292FAD
:101B80002823281721F0982B9093D503F4CF08959C
:101B90009091D503292F282329F0809589238093BC
:101BA000D503E9CF08958091D503811521F01092D6
:101BB000D50380E0E0CF08950F931F93CF93DF9379
:101BC00080919E0290919F028C01C091DF038091D1
:101BD000DE03C82B8091D503811529F0C82B0E9404
:101BE00034228111E0DFF801C083C0919E02D091C0
:101BF0009F0248E050E06BEC73E0CE010E94852C20
:101C0000892B59F088E0FE01ABECB3E001900D9216
:101C10008A95E1F7CE010E94C721DF91CF911F91F4
:101C20000F910895C9CF08950895FECF089590911A
:101C3000E50492FF0EC0982F990F990F990F962BDC
:101C40009093D3036CDB8091D3038695869586951C
:101C5000ECCF65CB1092D30380E0E7CF9091D30314
:101C6000809589238093D303282F277059F48917EF
:101C700049F09091E50492FF05C08695869586957A
:101C80005CDBE8CF08959091E50492FB222720F9D0
:101C9000281749F080FB92F99093E50484EE94E0D4
:101CA00043D082E0DBCF08958091E504002482FFD9
:101CB0000394802DE8CF81E0E6CF80E0E4CF80E0A0
:101CC00090E0BC01ECC380E090E0BC01E2D3F7CF30
:101CD000A3E0B0E0EEE6FEE00C944A2C93D39ED352
:101CE0001B82CE010396B1D381E090E0809376030E
:101CF00010927703B6D3198284E18A83CE010196CC
:101D0000C1D3E1DF2396E2E00C94662CE1CF089585
:101D10008BC3089578C308958DC308959CC3089517
:101D2000A0C30895A3C30895ADC30895BEC3089585
:101D3000C6C30895A6E0B0E0E0EAFEE00C94482CAB
:101D40000E94ED238C018091E0039091E1038017C4
:101D5000910779F019821A820E94ED23BC01498112
:101D60005A8180E090E00E94A7050093E003109361
:101D7000E1032696E4E00C94642CE0D26093E60341
:101D80007093E7038093E8039093E9036093E20381
:101D90007093E3038093E4039093E503089508951B
:101DA0000895FDCF08950895FEDFFBCF0895FECF7F
:101DB00008950895FEDFFBCF81E008958AEB91E15D
:101DC00008D7EEDFF1CF1FC508950895089508954F
:101DD000FCDFFCDFFCCF9EDF811101C097DF8AEEC4
:101DE00093E09ADF84EE94E09DDF98DF68DA8091DB
:101DF0007403909175037CCA0E94E42376D206D5C1
:101E000059D4E9DF0E94AD210E9487050E94241B5E
:101E100007D5D0CFF8D4811539F00E9483210E94D4
:101E200053189ED70C94AE210895A6E0B0E0EBE1E4
:101E3000FFE00C94412CC0DF81110AC07BDFEADF98
:101E40000E94B21D0E948F052696EBE00C945D2C3B
:101E50004CD488EDA82E84E0B82E750110E0F7016F
:101E60000081812F37D31F5F1C3009F445C09FEFDD
:101E7000E91AF90A081799F38091EA0381FD30D332
:101E8000A2DF982E10E0812F25D3F82EF501819145
:101E90005F01F81661F18F25D82E00E0EE24E3945F
:101EA0008D2D8E21F1F0CC24C3948F2D8E2109F439
:101EB000C12C911489F0602F812F0E944823811139
:101EC0000BC009831A830E94ED23BC0149815A810A
:101ED00081E09C2D0E94A7054C2D602F812F0E9430
:101EE0005C230F5FEE0C0630D9F6F501F2921F5F0E
:101EF0001C3049F642DFA3CF0813BECF9FCF0F930C
:101F00001F93CF93DF93FDD0EC01D23508F050C082
:101F1000D03508F0C8C0C03ED10530F5CD3CD10564
:101F200008F09DC0C83AD10578F4C53AD10508F04B
:101F300093C0C130D105B1F1CE010497813A91052A
:101F400088F1C0E0D0E02EC0CE01885A91094B97AD
:101F5000C0F7C85AD0E0CC0FDD1FCD5FDC4F099031
:101F6000D881C02DD4641EC0D034A8F4D03208F07B
:101F7000ADC0C83ED105B0F0CE0191509F3108F7F9
:101F80008D2F62D1082F8C2F90E0BBD0D02FDF7126
:101F9000C82FD92B07C08C2F90E0B3D0DF70C82F8B
:101FA000D92BD06ACE01DF91CF911F910F91089567
:101FB000C03882E5D807B8F5C03682E5D80708F002
:101FC00056C0C03482E5D807C8F4C03282E5D807CD
:101FD00008F047C08C2F8695869520E2829FC0012D
:101FE0001124C37021E030E002C0220F331FCA95D4
:101FF000E2F7E901C82BD92BDD68D4CF8C2F869569
:102000008695877020E2829FC0011124C37021E071
:1020100030E002C0220F331FCA95E2F7E901C82B56
:10202000D92BDC68BFCFC03C82E5D80750F48C2F99
:102030008F71C03AD24580F5982F84EF906AEC01F9
:10204000B1CFCE01805C9245809708F07ACFDC2F2B
:10205000DF71C0EFD06AA6CFA497D064A3CFD065BC
:10206000A1CF8C2F8F71D82FC1EFD06A9BCF8C2F2F
:1020700086958695877020E2829FC0011124C370E7
:1020800021E030E002C0220F331FCA95E2F7E901D8
:10209000C82BD92BDA6886CFD7D0982F80E09F71D4
:1020A000EC01D0627FCF8C2F8F71CED053E0CC0F5C
:1020B000DD1F5A95E1F7DF70282F84FF04C090E1FF
:1020C000899F90011124C22FD0696CCF8D2F8F7101
:1020D000BBD0082F8C2F90E014D0302F3F71282FC9
:1020E000392B3062E9015ECF462F7C3028F4663010
:1020F00018F4672F0C94DA0380E090E00895F4DF81
:10210000FECE803E9105D1F1C8F48133910509F4EA
:1021100081C048F48932910509F471C08A32910571
:1021200009F47FC0089589339105E1F08238910563
:10213000C9F08533910509F45DC00895843E910589
:10214000D1F148F4823E910531F1833E910541F190
:1021500081EE90E00895863E9105C1F1873E91059C
:10216000F1F108952091E404237009F064C02091F6
:10217000E50423FF14C089E290E008952091E4046F
:1021800020FD45C03091E50430FF09C024FD24C086
:1021900083EE90E008952091E40422FDF7CF0895A6
:1021A0002091E40422FD44C03091E50430FD43C099
:1021B00024FFF5CF11C02091E50421FFF0CF8091DD
:1021C000E40484FD09C087EE90E008952091E404C2
:1021D00023FFE5CF24FFF7CF80E090E00895209122
:1021E000E40423FD2BC03091E50431FFE1CF84EE00
:1021F00090E008952091E40425FFD1CFBCCF209139
:10220000E40425FD1EC02091E50423FFC8CF89E327
:1022100090E008952091E40426FFC1CF8AE290E087
:1022200008952091E40426FFBACF81E390E0089559
:1022300082EE90E0089580EE90E0089586EE90E0C2
:10224000089585E390E008959091E40492FF10C012
:1022500041E0282F2471243009F040E031E0282F9C
:102260002871283009F030E0431711F02CE0822764
:1022700093FF10C041E0282F2471243109F040E081
:1022800031E0282F2871283109F030E0431711F090
:102290002CE082273091E50430FF10C051E0282F58
:1022A0002171213009F050E041E0282F28712830B9
:1022B00009F040E0541711F029E0822731FF10C0E7
:1022C00041E0282F2171213109F040E031E0282F31
:1022D0002871283109F030E0431711F029E08227F6
:1022E00094FF02C083FD877E08951092E604109249
:1022F000E7041092E8041092E9040895EF92FF9227
:102300000F931F937B018C017ED2811112C00E941A
:10231000F9239701A801261B370B480B590BC9015C
:10232000DA018093E6049093E704A093E804B09365
:10233000E9041F910F91FF90EF90089564D28115E9
:1023400041F00E94F923462F572FBC01CB01BA015F
:1023500008950E94F923DC01CB014091E6045091DD
:10236000E7046091E8047091E904480F591F6A1F5F
:102370007B1FECCF80E00895CF939C01205E324517
:10238000C1E02032310538F4FB01C581C11103C021
:102390008F710E9448058C2FCF9108959C01FB01FD
:1023A0008581811599F02B359CE7390769F02C352B
:1023B0009CE7390721F02A353C4721F0089574DC69
:1023C00080E0089578DCFCCF78DCFACF81E00895D6
:1023D0009C01FB018581811599F021309CE739072B
:1023E00061F023309CE7390739F021153C4749F467
:1023F0000E94670580E008958BDC0E946B05FACF90
:1024000081E00895089580E090E00E94A32C9C0153
:1024100081E0233E3E4F09F080E0089563EE7EEFB9
:1024200080E090E00C94C22C6FEF7FEF80E090E0B2
:102430000C94C22CCF93DF93EC0182E090E00E94D9
:102440009B2C8883DF91CF910895FC01608182E00D
:1024500090E00C94A82C83E090E00E949B2C90E0EC
:102460000895682F83E090E00C94A82CCF93DF931D
:10247000EC0184E090E00E94A32C88839983DF9193
:10248000CF910895FC016081718184E090E00C940B
:10249000C22CAB01BC018FE090E00C94BA2CAB01D4
:1024A000BC0183E190E00C94BA2C8EE090E00E9495
:1024B0009B2C982F81E0911101C080E00895682F36
:1024C0008EE090E00C94A82C0895FECF0895089516
:1024D000FECF0895E82FF0E0E950FB4F808108958A
:1024E000089580EA8A95F1F7089500C00895F9CF1C
:1024F00008950895FECF0895A6E0B0E0E2E8F2E185
:102500000C94452C80D1F82E8091030590E08950E1
:102510009B4FF114E1F18E010F5F1F4FF80126E090
:1025200011922A95E9F7B80187D1E02ED12E8115B5
:10253000B1F08091EA0490E046E050E0B8018950A3
:102540009B4F0E94852C21E02093EB03892B91F473
:10255000F12CBEDF8F2D2696E7E00C94612C809144
:10256000EB038115A9F3F80186E011928A95E9F74A
:102570001092EB03A091EA04B0E0A950BB4F86E0B3
:10258000EE2DFD2D01900D928A95E1F7E2CF20917D
:10259000EA0430E0BC01C90189509B4FD8D1AADFC1
:1025A000D9CFF894E82FE295EF70F0E041A18F7059
:1025B00021E001C0220F8A95EAF7922F909594238B
:1025C00091A392A1822F892B82A378940895CF930F
:1025D000DF93CFE3D3E089918F3F09F0E2DF83E01F
:1025E000C534D807C1F7C9E3D3E089918F3F09F01B
:1025F000D8DF83E0CF33D807C1F7DF91CF910895BB
:10260000A0E0B0E0E6E0F3E10C94442C6C01E62E8F
:10261000C62FD0E08E01015C1C4FF80180818F3FF6
:1026200009F441C0F894E82FE295EF70F0E091A131
:102630008F7021E001C0220F8A95EAF7892F822B43
:1026400081A382A12095282322A378944EDFA9E3B9
:10265000B3E031E0F12C2D912F3F79F0E22FE2959C
:10266000EF70E05EF0E0808190E02F7002C0959501
:1026700087952A95E2F780FF1BC080E0F82A330F88
:1026800083E0AF33B80739F7F80180818F3F09F055
:1026900088DF61E0F11001C060E08E2D28DFF601D7
:1026A000EC0FFD1FF082CDB7DEB7E8E00C94602C94
:1026B000832FE4CFA5D0A4D090E0811101C096E093
:1026C0009093030586E0891B8093EA0480DFE7EF9F
:1026D000F4E08CE011928A95E9F7EBEEF4E08CE0FF
:1026E00011928A95E9F741D0F0CEACE0B0E0EBE78B
:1026F000F3E10C94472CFE013196DF018CE01D9232
:102700008A95E9F710E00E2FFF2E612F802F9F2D65
:1027100077DF812F8F5F182F8630B9F74CE050E0BC
:10272000602F7F2D8BEE94E00E94852C41E0892B59
:1027300091F440E06091030570E069507B4F8BEEAF
:1027400094E014D0182FD8DE912F982B892F2C9637
:10275000E5E00C94632C8CE0E02FFF2DABEEB4E0B1
:1027600001900D928A95E1F7E5CF0895EF92FF92DF
:102770000F931F93CF93DF938C017B01C42F4115DF
:1027800079F081E08093EE030E94ED238093EC03C7
:102790009093ED0380E0CDB7DEB7E6E00C94622CB9
:1027A000D091EE03D115B1F38091EC039091ED033C
:1027B0000E946C23059770F346E050E0B801C70112
:1027C0000E94852C892B41F086E0F801D701019009
:1027D0000D928A95E1F7CD2F1092EE038C2FDBCF6F
:1027E00099DA811101C092DAA1CACF930E94142C08
:1027F000C82F811102C00E94102C8C2FCF910895F8
:102800008091F20308958091F1030895EEDF8093A3
:10281000F103E6DF8093F203F6DF811140C00895F3
:10282000F2DF811101C03EC0089581E09091F30371
:102830009A3008F080E008950F931F93CF93DF93B1
:10284000EC018B018091F3038A3080F4B801CE0152
:102850007CD0811121C08091F3038F3FB1F40E949D
:10286000ED238093EF039093F00309C08091EF0371
:102870009091F0030E946C23843F914038F780E0F0
:10288000DF91CF911F910F9108958F5F8093F30394
:102890008A3028F781E0F4CF1092F303FBCF0C9439
:1028A000982408950C949B240895CF92DF92FF9270
:1028B0000F931F93CF93DF936901E801082F880FCF
:1028C000110B41155105B1F0F80133E0EE0FFF1F78
:1028D0003A95E1F7E056FD4F818192818C509C4FF3
:1028E000E0812E2F30E04E17510508F49A01A9011E
:1028F0000E94922CC8010E947925F82E8115E1F0E2
:102900002097D1F0C80123E0880F991F2A95E1F79D
:10291000FC01E056FD4F2381422F50E0C217D10544
:1029200008F4AE0180569D4FFC01648175816C50A6
:102930007C4FC6010E94922C8F2DDF91CF911F9169
:102940000F91FF90DF90CF900895E9C00895FCC0EB
:102950000895A4E0B0E0EFEAF4E10C94482C609113
:102960000D0470910E0480910F04909110040E9448
:10297000752311E0643671058105910508F1DEDCEF
:10298000DC01CB010296A11DB11D89839A83AB8323
:10299000BC8300E010E0980144E050E0BE016F5FAE
:1029A0007F4F82E082DF182F811551F00E94F923BA
:1029B00060930D0470930E0480930F0490931004A1
:1029C000812F2496E4E00C94642CA7E0B0E0EBEEB9
:1029D000F4E10C94422C5B01E0904503F090460337
:1029E00001E010E0CE0107969C0140E050E0BA0102
:1029F00080E05BDF182F811509F445C067018FEF78
:102A0000C81AD80A6091090470910A0480910B04D5
:102A100090910C040E94752364367105810591051F
:102A200058F106E010E0CE0101969C0140E050E034
:102A3000BA0181E03ADF182F66E070E0C60105D6E2
:102A40009F8198132DC0111559F10E94F9236093AD
:102A5000090470930A0480930B0490930C0486E09D
:102A60009E012F5F3F4FF901A3E0B4E001900D926A
:102A70008A95E1F781E015C066E070E0C601E5D512
:102A80009F818913CECF86E0F70131969E012F5F9B
:102A90003F4FD90101900D928A95E1F71111DFCFD7
:102AA00080E096E0E3E0F4E0D50101900D929A9584
:102AB000E1F72796EAE00C945E2CA0E0B0E0E3E6B4
:102AC000F5E10C94422C7C016B015A01AEDE0AE068
:102AD00010E0811102C001E010E0C1E0D0E0B601D9
:102AE000C701F5010995811115C021960C171D0725
:102AF0008CF0CC9F9001CD9F300D300D112480E0E3
:102B000090E045E34A95F1F700000196821793079C
:102B1000C1F7E5CFCDB7DEB7EAE00C945E2C0F939A
:102B20001F93CF93DF93EC018B0145EE54E1C5DF9A
:102B3000811529F049EA54E1B801CE01BEDFDF91E9
:102B4000CF911F910F910895CF93DF93C0914503CB
:102B5000D0914603CE01019626E0FB01DC010190F5
:102B60000D922A95E1F766E070E06FD588838F813A
:102B70009885A985BA854091FF0350910004609122
:102B800001047091020484179507A607B70759F04E
:102B90008093FF0390930004A0930104B093020478
:102BA000BC01CD01ABDBDF91CF9108953EC9089503
:102BB0000E9487230E94092701D90E9421271CD93E
:102BC0000E942A270E942D27F1DF0E94432700D967
:102BD000F9CF809348039093490308959C018D3267
:102BE0009105F9F088F48832910548F44E97E0F4A5
:102BF000245031092A313105A0F080E0089581E0A8
:102C00002A323105D1F7089581E02D3292E039075B
:102C100009F080E091E02C34310509F090E0892B37
:102C2000089582E00E94980D81E00895EF92FF924E
:102C30000F931F93CF93DF93EC018B01C3378CE786
:102C4000D80751F4FB01858181119BD080E0CDB77D
:102C5000DEB7E6E00C94622C0E94810DF82E0E94F3
:102C6000A90DE82E5FD08115A1F153D0F80185811F
:102C7000811579F18F2D8E298D79E9F5D03578F48C
:102C8000D03408F03FC0C63ED10519F1CE019052B4
:102C9000903280F48681803118F1D0E00BC0C43BC3
:102CA00082E5D807B1F0B8F4C03482E5D80758F40B
:102CB000D23578F40E94A60DCE0190DF8115D9F0AF
:102CC0000E94120E06C0CE018056924580349105B6
:102CD00088F781E0BCCFCE01805C92458097F8CF29
:102CE0008D2F8F718431A9F340F4823079F0C5EED5
:102CF000D0E08231F9F228D0ECCFC6EED2E18631B5
:102D0000C9F2F9CF8681803140F6E3CFC1EED0E041
:102D1000D1CF0E94ED2388579C4E8093110490934D
:102D20001204089580911304089508958091130466
:102D3000811109C00E94920D0E94D30DEADF81E04B
:102D400080931304F2CF089580911304811539F014
:102D500082E20E94F3081092130480E0E6CF089507
:102D600080911304811561F00E94ED2320911104DC
:102D700030911204821B930B8F3F9F4708F4E4CFDE
:102D8000089580911304811509F0DECFCFCF089507
:102D9000A9E0B0E0EEECF6E10C94462C7B01FB01DF
:102DA00022813381232BC9F0FE01319687E01192F5
:102DB0008A95E9F70E94ED239C01F70172818381D6
:102DC00009811A8144E05E816F810E94E80CF7015D
:102DD00015822996E6E00C94622C60E0D8DFF7CFEC
:102DE000EF92FF920F931F93CF93DF93809187040D
:102DF000E0911404CDE0811129C0CDB7DEB7E6E043
:102E00000C94622CDE2FDF5FD0931404EE2EF12C95
:102E1000CE9FF0011124E15EFB4F84818115A9F062
:102E200087819085892BD9F4818592858F3F98077A
:102E3000B1F061E0ACDFCE9DF001CF9DF00D11242B
:102E4000E15EFB4F14820E94A60DED2F8091870456
:102E5000E817C0F21092870410921404CECF0081BC
:102E600011812281338144815581668177818085FA
:102E70000E94E80CE0CFCF93DF9310928804109269
:102E80008904C0E0D0E00E94DC03C817D90718F01D
:102E9000DF91CF910895CE010E94DF03FC0185816F
:102EA000811102C0148216822196EDCF1F93CF9319
:102EB000DF9310911D0440911E044117C9F0C12FEA
:102EC000D0E0FE01EE0FFF1FEB5EFB4F2081318152
:102ED0002817390789F40E94DF0321E0FC012483CD
:102EE00080911D04811304C02196C370C0931D04FA
:102EF000DF91CF911F910895C3951C2F1370DDCFE3
:102F0000A0E0B0E0E6E8F7E10C943F2CEC01FB0117
:102F1000848181115CC090908704AFE1B4E040E00F
:102F200050E030E001E010E0491508F04EC01B967B
:102F3000AD90BD901D97FB01C080D18077247A941D
:102F4000872C20E0822F90E0F601E20FF11DE20FC6
:102F5000F11DE590F590AE14BF0411F0872D982D6A
:102F6000E114F10421F02F5F782E892EEBCF8F3FF3
:102F70009807A9F1F80101C0EE0F8A95EAF73E2BF8
:102F8000C801022E02C0880F991F0A94E2F7019728
:102F90003817190609F5FB01828193813DE0349FC2
:102FA000F001359FF00D1124E15EFB4F8783908780
:102FB00084E0848310821182C187D28781E0FB0183
:102FC0008583213011F4CE01E3DECE016FDFCDB772
:102FD000DEB7EDE00C945B2C14961C9214974F5FB7
:102FE0005F4F1D96A1CF0F931F93CF93DF93C09197
:102FF0001D0480911E048C1307C0F2DE3CDFDF91BC
:10300000CF911F910F910895D0E08E01000F111FF5
:103010000B5E1B4FF801808191810E94DF03BC0190
:10302000F801808191816CDFC395C370E2CFEF928C
:10303000FF920F931F93CF93DF93DC014D915D912E
:10304000129730E090E020E0FA01E20FF11DE20F6C
:10305000F11DC591D5912097C1F0FB01008111812F
:1030600090E007C081E0CE15DF0509F080E0382B45
:103070009F5FF801E90FF11DE90FF11DE590F59053
:10308000E114F10479F72F5FDFCF311549F0921782
:1030900008F0BD01CB01CDB7DEB7E6E00C94622CA1
:1030A00060E070E0F7CF8091B8028115F1F0809177
:1030B0008A0490918B040097C1F00E946C232091A8
:1030C0008804309189042817390778F490911D04F9
:1030D00080911E04981751F086DF10928804109298
:1030E000890410928A0410928B04089579DEC3DE5D
:1030F000F8CF10928A0410928B041092B80280913B
:103100001E0480931D04B7DE6BCE8091B80281153A
:1031100009F0EFCF81E08093B8020895ABE0B0E012
:10312000E4E9F8E10C943A2C7B0180352CE7920716
:1031300061F4FB0185818115D9F081E08093B802AB
:1031400081E02B96E2E10C94562C81352CE7920716
:1031500031F4FB018581811559F0CBDFF1CF823548
:103160009C4731F4FB018581811511F0CEDFE8CF5A
:10317000F7016081718180E00E9474101C01C12CF4
:10318000D12C812C360163940E94DC03C816D90629
:10319000D8F1F7018581811509F421C1811409F461
:1031A0001EC10E94ED2380938A0490938B0480912A
:1031B0008704883028F5982F9F5F9093870499E0C3
:1031C000F7019E012F5F3F4FD90101900D929A9513
:1031D000E1F72DE0829FC0011124815E9B4F29E021
:1031E000AE014F5F5F4FFA01DC0101900D922A950D
:1031F000E1F72FEF3FEFFC012187328723863486EA
:10320000882D809581709DCFC6010E94DF038C01BF
:10321000FC01208131816FEF80E09FEFA82EB12C5F
:10322000F901E80FF11DE80FF11D459155912416A4
:10323000350611F0A62EB92E452B21F08F5F6A2D91
:103240009B2DECCF9FEFA916BA0409F4C6C0F80174
:1032500044815090B8024111512CF801958096811B
:10326000F7012581211509F47FC0511409F47CC0B0
:10327000911015C021E00A2C01C0220F0A94EAF730
:10328000922BF8019683209188043091890422338F
:10329000310528F422E320938804109289049301D5
:1032A00002C0220F331F8A95E2F7C9010197F80186
:1032B00026812817190661F580918A0490918B0464
:1032C000009761F00E946C23C39740F081E0F80101
:1032D0008483882A8FEFC81AD80A56CF40901D04DD
:1032E00080E090E09924939420911E04421212C031
:1032F0000817190769F0842D90E0FC01EE0FFF1FFD
:10330000EB5EFB4FC082D1820196837080931E04D6
:10331000852DDFCFA42CB12CF501EE0FFF1FEB5E46
:10332000FB4F808191810E94DF038A879B87B801D0
:103330007EDE0097A1F0FC0194820817190741F383
:1033400020911D0442120BC02A853B85281739079E
:1033500031F495012F5F3F4F237020931D04950199
:1033600023952370422EC0CF292F30E091101EC02C
:10337000B30102C0660F771F8A95E2F7CB01019770
:103380008217930771F0512CC30102C0880F991F57
:10339000AA94E2F75C01A094F80186818A218683D1
:1033A000B7CF411589F3C60181DDEDCFA9010A2C04
:1033B00002C0559547950A94E2F7C9010197822307
:1033C0009323892B39F440FF05C0B801C601E0DC26
:1033D000592CDACF4170542ED7CF80E07ACF90911C
:1033E0001D0480911E04981711F0FDDD09CFF8DC53
:1033F00010928A0410928B043EDD02CF8B3258F477
:10340000853098F0E82FE550E63278F4F0E0E551A9
:10341000F34D0C94342C833450F48A3308F052C0AA
:10342000853331F091E0883369F090E00BC0E9F723
:1034300081E090E00E945F090E94090902C00E9499
:10344000860E91E0892F08958091EA03807F809312
:10345000EA0381E080938F04F4CF0E946705F1CFE7
:103460009091EA03892F8E7F90FF81608093EA0319
:1034700080FDE7CF817F8093EA03E3CF9091EA0359
:10348000892F8D7F91FF82608093EA0381FFD9CFDE
:103490008091EA038160EFCF9091EA03892F8B7FBF
:1034A00092FF84608093EA0382FDF2CFCACF9091AD
:1034B000EA03892F877F93FF88608093EA0383FD67
:1034C000E7CFBFCF895321E030E002C0220F331F86
:1034D0008A95E2F7C901AECF8D51F5CF80E008950E
:1034E00080E00895CF93C82F80918F04813089F0B8
:1034F000823081F18111A4C00E94810D823209F0D5
:10350000A1C08C2FEBDF811102C08C2F77DFCF9110
:1035100008950E94810D8232A1F38C2FE1DF811585
:1035200019F081E08170F3CFC43169F030F4CB3011
:10353000C1F3C03159F080E0F5CFC93221F081E00C
:10354000C833C9F7EFCF10928F04F5CF82E0809394
:103550008F04E7CFCF3409F469C068F4C83248F467
:10356000CE3178F5C73009F450C0C431F9F081E0AC
:10357000CECFC932FBCFC13509F45AC0C23509F4E8
:1035800059C086EFC03599F7E0918C04F0918D0415
:10359000309769F32081982F990F990B820F911D15
:1035A00091300CF449C08FEF8083E1CF80918E047D
:1035B0008115E9F210928E0410928C0410928D0401
:1035C000D6CFCD51C0938E04C430C9F078F48EEBC1
:1035D00092E0C23031F082E994E0C33011F48DEB17
:1035E00092E080938C0490938D04C1CFC53051F04C
:1035F00089EB92E0C630A9F310928E04B8CF8CEB21
:1036000092E0EFCF8AEB92E0ECCF1092920484E14B
:103610008093BE02C093BD028CE38093BC0288E01D
:103620008093BA0288E28093B902A1CF8AE0ACCF3E
:103630008FEFAACF81E0A8CF97FFB6CF108297CFA8
:1036400010928F0480E063CF0895FC01680F791F0A
:103650008FEF41E3E617F70709F408959191892761
:1036600028E030E0982F990F87FF06C0892F842724
:1036700021503040B9F7EECF892FFACFCF93DF93A7
:10368000EB0186319C4709F50E94810D9D819115C2
:1036900099F08A7A91E0811101C090E090939004B2
:1036A000811541F085E330D70E94120E80E0DF9152
:1036B000CF91089589E2F7CF80919004811519F098
:1036C00085E328D7F1CF89E2FCCF81E0F0CFCF931B
:1036D000DF93EC01FB018581811509F4CBC09E01CC
:1036E00030572332310508F0ABC084EE94E00E94DD
:1036F000920EFE01E150F047E232F10520F4EF5E58
:10370000F24D0C94342C8091E40481608093E404A5
:1037100090C08091E50488608093E5048AC0809120
:10372000E4048260F3CF8091E4048460EFCF809161
:10373000E4048860EBCF8091E5048160EDCF809157
:10374000E5048260E9CF8091E4048061DFCF80915D
:10375000E4048062DBCF8091E4048064D7CF0E94D0
:1037600009098091E4048068D1CF8091E4048C60E1
:10377000CDCF8091E5048360CFCF8091E4048E7F2C
:10378000C5CF8091E504877FC7CF8091E4048D7F0A
:10379000BDCF8091E4048B7FB9CF8091E404877F13
:1037A000B5CF8091E5048E7FB7CF8091E5048D7F02
:1037B000B3CF8091E4048F7EA9CF8091E4048F7D04
:1037C000A5CF8091E4048F7BA1CF0E94090980914D
:1037D000E4048F779BCF8091E404837F97CF80911F
:1037E000E5048C7F99CF9091E404892F8B7F92FF21
:1037F0008460877F92FF886089CF8091E504982F4D
:10380000909590FB80F990FB81F986CF9091E4042C
:10381000892F8F7B96FF806479CF0E940909909150
:10382000E404892F97FB87F9805870CF81E00E94CC
:10383000980E84EE94E00E94940E0E94090980E0A4
:10384000DF91CF91089580E0F2CF9091E404892F29
:103850008F7E94FF80615ACF9091E404892F8E7FF0
:1038600090FF816053CF9091E504892F877F93FF6C
:10387000886052CF81E0E4CF382F25EB3203C001BE
:10388000112497FF04C080589109892F089580580A
:103890009F4FFBCF8091990480FF0DC06091BD02C6
:1038A00070E0660F771F6038710588F56115710546
:1038B00081F1862F089581FF07C06091BD0284E0E9
:1038C000689FB0011124EFCF82FF04C06091BD0258
:1038D00088E0F6CF909198049115B9F06091BC0200
:1038E0008091BD02961728F098E0899FB0011124BD
:1038F000DACF899FC001112423E0880F991F2A95F0
:10390000E1F770E00E94212CCECF68E0D2CF8FE7A4
:10391000089581E008958091990480FF0CC0609122
:10392000BA0270E075956795759567956115710593
:1039300041F1862F089581FF06C06091BA0270E0C0
:1039400075956795F3CF6091BA0282FD0BC0909197
:1039500097049115A1F06091B9028091BA0296176F
:1039600038F0682F70E06038710500F38FE7089534
:10397000899FC001112470E00E94212CF4CF61E0E6
:10398000D8CF81E00895E82FED5CE33198F5F0E0C1
:10399000ED5CF24D0C94342C7DDF819580939D0479
:1039A000089578DFFBCF76DF819580939C0408959E
:1039B00071DFFBCFB0DF80939E040895ACDF81956B
:1039C000FACFA9DF819580939F040895A4DFFBCFF0
:1039D000815D990B21E001C0220F8A95EAF7809161
:1039E0009B04822B80939B040895809199048160AD
:1039F000809399040895809199048260F9CF809111
:103A000099048460F5CF40919C048D3C59F48091D9
:103A10009D0487FF0DC010929D04411559F410922A
:103A2000980408C08E3C81F480919D0418169CF384
:103A3000411581F080919E0490919F04892B09F09B
:103A400056C01092970408958F3C41F447FFF0CF81
:103A500010929C0480919D048115E0CF803D19F463
:103A60001416B4F3E5CF90919E04893D29F41916FC
:103A7000FCF610929E04DCCF8A3D19F497FFD8CF54
:103A8000F8CF90919F048B3D29F497FFD1CF1092EE
:103A90009F04CECF8C3D19F41916CCF3C9CF982FC3
:103AA000915D983078F4815D990B21E001C0220F7F
:103AB0008A95EAF7822F809590919B0489238093C1
:103AC0009B04B6CF8D3D31F4809199048E7F809315
:103AD0009904AECF8E3D21F4809199048D7FF7CF6C
:103AE0008F3D09F0A5CF809199048B7FF0CF089589
:103AF00074D69C0190919C0480919D04982B21F098
:103B0000209395043093960490919E0480919F0495
:103B1000982B21F020939304309394048AE994E045
:103B200043C4EAE9F4E086E011928A95E9F710923D
:103B3000980410929704109299040895FC018281D0
:103B400081110EC0838181110BC08481811108C055
:103B500091E08581811101C090E0892F81700895E5
:103B600081E0FCCFA6E0B0E0E8EBFDE10C94472C4F
:103B700086E0EAE9F4E09E012F5F3F4FD901019012
:103B80000D928A95E1F710929C0410929D04109278
:103B90009E0410929F048B819C81892B022FF32E0F
:103BA000811581F0809195049091960495D5AC0192
:103BB000909198049115A1F18091BE028417150689
:103BC00008F43BC08D819E81892B89F080919304FC
:103BD0009091940481D5AC0190919704911509F4CA
:103BE0005AC08091BB028417150608F462C0602F8A
:103BF0007F2D8AE994E09ED4811104C08AE994E083
:103C00009DDF811175DF86E0E02FFF2DAAE9B4E08A
:103C100001900D928A95E1F72696E5E00C94632CCD
:103C2000209192048AE0289F9001112424173507DF
:103C300048F69F5F9093980402C09F3FD1F71B8185
:103C4000111551F027DE91E011160CF09FEF899FBE
:103C5000802D112480939C041C81111551F01ADED3
:103C600091E011160CF09FEF899F802D1124809315
:103C70009D0480919C04811509F4A4CF10919D04AA
:103C8000111509F49FCFF8DD80939C04812FF4DD9A
:103C900080939D0497CF209191048AE0289F900102
:103CA00011242417350708F0A2CF9F5F9093970443
:103CB00002C09F3FD1F71D81111551F02CDE91E01C
:103CC00011160CF09FEF899F802D112480939E0484
:103CD0008E81182F811551F01EDE91E011160CF027
:103CE0009FEF899F802D112480939F0480919E04D3
:103CF000811509F47CCF90919F04192F911509F437
:103D000076CFBADD80939E04812FB6DD80939F0429
:103D10006ECFDC01ED91FD9184913196FE93EE938F
:103D20000895A0E0B0E0E7E9FEE10C94432CE82F11
:103D3000F0E0EE50FC4F9491B92E282F2695269551
:103D4000269530E0F901EE56FB4FE4908770F12C98
:103D5000082E02C0F594E7940A94E2F7F901EE57B1
:103D6000FB4FC490D12C082E02C0D594C7940A945E
:103D7000E2F72E583B4FF901049110E002C015956F
:103D800007958A95E2F7C62FD0E0E0FC25C0C0FE7B
:103D900006C086EE0E94EB05CE01009759F5BE01E4
:103DA0008B2D0E94C906CE01009761F5C0FC32C080
:103DB000E0FE06C081EE0E947706CE010097C1F5B5
:103DC00000FF05C08CE20E94DF062097C9F5CDB741
:103DD000DEB7E9E00C945F2C81EE0E94EB05CE018A
:103DE0000097A9F2EFE9FFE03197F1F700C000007A
:103DF0000197F6CFEFE9FFE03197F1F700C000003F
:103E00000197CBCFEFE9FFE03197F1F700C0000059
:103E10000197CACF86EE0E947706CE01009741F245
:103E2000EFE9FFE03197F1F700C000000197F6CF0E
:103E3000EFE9FFE03197F1F700C000000197BECF36
:103E40008FE99FE00197F1F700C000002197BDCFF7
:103E5000A0E0B0E0EEE2FFE10C94432C8C017B018A
:103E6000B42EC701F80109958130A0F009F058C0BF
:103E7000C701F8010995C82F813089F4C701F801FD
:103E800009950E94DF068B2D90E0009709F040C055
:103E9000C111E7CFCDB7DEB7E9E00C945F2C8230DB
:103EA00031F4C701F80109950E94EB05ECCF83308E
:103EB00031F4C701F80109950E947706E4CF8430F8
:103EC00011F7C701F8010995C82FC12CD12CDAE0F0
:103ED0008C2F8053990B8A30910568F0C114D1045E
:103EE00091F2EFE9FFE03197F1F700C0000081E0C7
:103EF000C81AD108F3CFDC9D9001DD9D300D11244F
:103F0000820F931F6C01C701F8010995C82FE0CFFC
:103F1000EFE9FFE03197F1F700C000000197B5CF5E
:103F20006B2DFFDE9ECFA2E0B0E0E9E9FFE10C944B
:103F30004A2C462F89839A83BE016F5F7F4F89E8A1
:103F40009EE186DF2296E2E00C94662C0F931F938D
:103F5000CF93DF93C42FD22FFC0185818115C9F047
:103F60004093A2043AD48093A0049093A1048C2F90
:103F7000805E883048F481E0C1FD84E0C0FD880F98
:103F8000C2FD82950E94E606DF91CF911F910F91AD
:103F900008951091A204141333C08091A00490914D
:103FA000A1049AD3883C910558F5CD2FC05E1D170A
:103FB000C1F0812F805E883048F481E011FD84E0FB
:103FC00010FD880F12FD82950E94EB06C83048F460
:103FD00081E0D1FD84E0D0FD880FD2FD82950E9462
:103FE000E606802F0E94DF0681E0D1FD84E0D0FD4F
:103FF000880FD2FD8295C83038F60E94EB06C4CFF8
:104000008C2F805E883008F0BFCF81E0C1FD84E056
:10401000C0FD880FC2FD8295F0CF0F93FC01CB014C
:10402000E851FC47E730F10588F5EA5BF24D0C9466
:10403000342C06E221EE41EE6AE17CE787DF80E086
:104040000F91089507E225EE45EE6BE17CE7F6CF90
:1040500006E221EE40EE68E17CE7F0CF07E225EED4
:1040600044EE69E17CE7EACF06E221EE42EE6CE144
:104070007CE7E4CF07E225EE46EE6DE17CE7DECF9C
:1040800008E221E045EE6EE17CE7D8CFFB018581B7
:1040900081111092A20481E0D3CF4115510511F096
:1040A000FA0109950895CF93DF93C82FD62F0E9468
:1040B000EF03C817190608F046C0E5EAF4E020E06F
:1040C00030E047E0429FC001439F900D1124DC0186
:1040D000A655BB4F5C9153FF08C056815C1305C0C9
:1040E0008B559B4FDF91CF9108952F5F3F4F3796B0
:1040F0002330310539F7D11531F18091AA0483FFBE
:104100001CC08091B10483FF1BC08091B80483FD63
:104110001AC082E090E027E0289FF001299FF00D6F
:104120001124CF018B559B4FDC011696CC93E6559D
:10413000FB4F208128602083D5CF80E090E0EBCF3B
:1041400081E090E0E8CF80E090E0CCCFCF93DF93A8
:10415000EB01FC014481558160857185CE019DDFB5
:104160008B810E949E0D8C810E948A0D0E94120EEE
:1041700087E019928A95E9F7DF91CF9108950F931F
:104180001F93CF93DF938C01EB018D8181FD11C0D3
:1041900082608D838B810E94980D8C810E94840D9A
:1041A0000E94120EF8014281538160857185CE0113
:1041B00074DF1092BA041092BB048D8180FD03C09D
:1041C000BE01C801C3DFDF91CF911F910F91089508
:1041D00060E069CFEF92FF920F931F93CF938C0112
:1041E000FB01C581C11108C0C0E08C2FCF911F9188
:1041F0000F91FF90EF9008958091BA049091BB04C5
:10420000009791F38017910779F390E00E94F203F1
:104210007C018091BA04DCDFFC01892B29F38581C4
:104220008460858300831183BF01C701A8DF0E94DA
:10423000A60DDBCFA0E0B0E0E0E2F1E20C94442C6C
:104240008C016B01975509F043C0C02FD0E00E944C
:10425000EF03C817D90730F080E0CDB7DEB7E8E04C
:104260000C94602CCE010E94F2037C01F601658162
:10427000802F19DFEC01892B79F3F60185819D816F
:1042800080FB90F99D83811529F1A7D28093A30427
:104290009093A4048A818F5F8A830E94810D8B830F
:1042A0000E94950D9B81982B9B830E94A90D8C8366
:1042B000F7014081518160857185CE01EEDE8D81EF
:1042C00081FF02C000E010E00093BA041093BB0429
:1042D00081E0C3CFF7014681578160857185CE01AA
:1042E000DCDE8D8181FFF4CFBE01C7012FDF80911D
:1042F000BA049091BB048017910751F71092BA0449
:104300001092BB04E5CFCF93DF938091BA049091D4
:10431000BB04892BD1F08091A3049091A404DCD13B
:10432000893C910590F08091BA0490E00E94F203DC
:10433000EC018091BA044CDF009739F0FC01258133
:1043400022FD03C0BC01CE011ADFDF91CF91089599
:104350008093C1049093C2040895089508950E9423
:104360000314811103C08091BC040895E091C1043D
:10437000F091C204309739F00190F081E02D309730
:1043800011F00995089580E00895E9CF0895E0912E
:10439000C104F091C204309731F00280F381E02D26
:1043A000309709F009950895E091C104F091C20495
:1043B000309759F026813781232B39F022E0DC0138
:1043C0002C930680F781E02D09950895A3E0B0E0D5
:1043D000ECEEF1E20C944A2C2091BF043091C00421
:1043E00028173907B1F08093BF049093C004E0917F
:1043F000C104F091C204309761F00084F185E02D92
:10440000309739F023E029838A839B83CE0101967C
:1044100009952396E2E00C94662CA3E0B0E0E3E17A
:10442000F2E20C944A2C2091BD043091BE0428176E
:104430003907B1F08093BD049093BE04E091C104AC
:10444000F091C204309761F00084F185E02D30973F
:1044500039F024E029838A839B83CE010196099554
:104460002396E2E00C94662C40919E0250919F02AC
:104470009A012E5F3F4F485F5F4F80E0F9019081C6
:104480002F5F3F4F91118F5F42175307B9F7089580
:10449000811591F020919E0230919F02F901329690
:1044A000285F3F4F9081981731F03196E217F3075C
:1044B000C9F780E0089581E008959C01FC013296DF
:1044C00080E09FEF4081461759F031969F3F19F4E5
:1044D000411101C0982F8F5F8630A1F79F3F09F4EB
:1044E0000895290F311D97FD3A95F90162830895CA
:1044F000FC01329608962191261302C0DF011E921C
:10450000E817F907C1F70895682F80919E029091EE
:104510009F02D3CF682F80919E0290919F02E8CF97
:10452000E0919E02F0919F02329686E011928A9568
:10453000E9F70895DC01FB0111969C9111978181A7
:10454000981322C012968C911297811519F09281BE
:1045500089131AC013968C911397811519F09381C2
:10456000891312C015968C911597811519F09581B4
:1045700089130AC014969C91911521F081E0248141
:10458000291303C080E001C081E08170089508957F
:10459000FECF08958F5F8093C2026091BF02709139
:1045A000C0028091C1029091C202F2CF83E0809359
:1045B000C2026091BF027091C0028091C1029091CD
:1045C000C202E6CFE7CF089581E08093C2026091F6
:1045D000BF027091C0028091C1029091C202D8CFF7
:1045E000F3CF089591E0811101C090E09093C10252
:1045F0006091BF027091C0028091C1029091C2028D
:10460000C7CF8091C10208958093C0026091BF021C
:104610007091C0028091C1029091C202B9CF809185
:10462000C00208958093BF026091BF027091C002E2
:104630008091C1029091C202ABCF8091BF020895D8
:1046400008950895FECF089508950895F9CF089527
:104650000F931F93CF93DF93F7DF0E947513F5DF5E
:1046600003EC14E0C0E0D0E08C2F0E946A12F80145
:1046700081938F0191E0811101C090E0D92BCF5F30
:10468000CC3091F78D2FDF91CF911F910F9108952D
:10469000E82FF0E0ED53FB4F808190E021E030E027
:1046A00002C0220F331F6A95E2F72823392381E0E5
:1046B000232B09F480E0089541110DC0E82FF0E0AC
:1046C000ED53FB4F21E001C0220F6A95EAF72095D8
:1046D0008081282320830895CF93DF93EC017DD040
:1046E0008C1B9D0BDF91CF910895EF92FF920F935A
:1046F0001F937B018C017DD09701A801621B730B76
:10470000840B950B1F910F91FF90EF90089585B743
:10471000806885BF85B7806885BF08951F921FB6E2
:104720001F9211248F939F93AF93BF938091CF04D7
:10473000811113C08091040590910505A091060593
:10474000B09107054196A11DB11D8093040590937A
:104750000505A0930605B0930705BF91AF919F9102
:104760008F911F901FBE1F90189580910C0584306B
:1047700031F10E946F051092CF0488E190E020E4AF
:104780000FB6F894A895809360000FBE2093600048
:1047900083B7817F846083BF83B7816083BF789450
:1047A000889583B78E7F83BF0FB6F894A8958091C4
:1047B0006000886180936000109260000FBE0895D1
:1047C0000E9409090C94730582E084BD93E095BDB5
:1047D0009AEF97BD80936E0008952FB7F89480915B
:1047E000040590910505A0910605B09107052FBF1E
:1047F00008952FB7F8946091040570910505809194
:104800000605909107052FBF089578941F921FB653
:104810001F9211248F939F93AF93BF9380910405B0
:1048200090910505A0910605B09107050196A11D7F
:10483000B11D8093040590930505A0930605B093E0
:104840000705BF91AF919F918F911F901FBE1F9041
:10485000189587E797E7809300089093010888E10F
:104860009AE00FB6F894A895809360000FBE9093DD
:104870006000FFCF88E19AE00FB6F894A895809386
:1048800060000FBE90936000FFCF8EE1489B02C096
:104890008150E1F7489BFECF0895589880E28A95B1
:1048A000F1F7589A0895FC018BE08A95F1F798E0AA
:1048B00020E080E031E040E14A95F1F7880F489B25
:1048C00002C08160232742E04A95F1F7000040E1F1
:1048D0004A95F1F7915079F790E19A95F1F799B1EE
:1048E00032E03A95F1F7000030E13A95F1F7917036
:1048F00092272081920F90830895A1E0B0E0E2E832
:10490000F4E2C4C719828C017C01E60EF11CBDDF04
:10491000CE010196C8DFF80181938F01EE15FF05E6
:10492000B1F781E09981911180E02196E6E0CAC754
:10493000509A589A08955098589AE89AE9E6F0E003
:1049400080818C7F808308956150770B91E001C056
:10495000990F6A95EAF7692F90E021E0611108C08C
:10496000911591F0589A80E28A95F1F75898089538
:10497000362F382339F0589A922730E23A95F1F7DA
:104980006695ECCF5898F9CF5898EDCFFF920F93DA
:104990001F93CF93DF93EC018C01060F111D8991BA
:1049A000F82E7BDF68E08F2DCFDFC017D107B9F776
:1049B000CDB7DEB7E5E087C71F920F920FB60F9213
:1049C00011240F931F932F933F934F935F936F93F4
:1049D0007F938F939F93AF93BF93EF93FF93CF9367
:1049E000DF930F92CDB7DEB719824FDFCE0101966C
:1049F0005ADF082F069506950695282F22952570D3
:104A0000902F9570920F292F237096959695920F5F
:104A1000982797708981892B09F055C0043008F0D8
:104A200052C080E18A95F1F7589A509A82E08A95AF
:104A3000F1F700C0589888E0089F80011124D80140
:104A4000A056BD4F1696ED91FD911897309791F0B5
:104A5000609145037091460314962D913D91260F68
:104A6000371F15978D919D91680F791F4C91139762
:104A70008C910995F801E056FD4F6381611549F06D
:104A8000209145033091460384819581820F931FC5
:104A90007DDF03DF80E18A95F1F758985098589AA6
:104AA00080E18A95F1F7F801E056FD4F60816115CC
:104AB00049F0209145033091460381819281820F14
:104AC000931F1BDFE2DE0F90DF91CF91FF91EF91FB
:104AD000BF91AF919F918F917F916F915F914F9116
:104AE0003F912F911F910F910F900FBE0F901F902C
:104AF00018950F931F93CF93DF93EC0104970CF05D
:104B00005EC0F894509A589885E08A95F1F70000B5
:104B10009C2F969595708C2F8570980F892F837098
:104B200096959695292F93E0CC0FDD1F9A95E1F786
:104B3000280F822F8C2B082FB0DE00C068E0802F5A
:104B400003DF80E18A95F1F75098589A489B30C06E
:104B500087E090E048992EC0FE01E056FD4F63814A
:104B6000611559F020914503309146038481958168
:104B7000820F931FC2DE8115F9F087DE80E28A95ED
:104B8000F1F75898509A80E18A95F1F7C056DD4FB9
:104B90006881611549F02091450330914603898170
:104BA0009A81820F931FF2DE78DE789481E008C04C
:104BB00000C0CCCF019749F4509A589A789480E07D
:104BC000DF91CF911F910F91089500C0C3CF089539
:104BD0009B01BA0190910C059430D9F48F708093A9
:104BE000E9009FEF8091E80085FD06C085ED8A957C
:104BF000F1F700009150B1F78091E80085FF09C0FE
:104C000040E050E0C901B1D18091E8008E778093F7
:104C1000E800089543E050E0BC0182E0D9CF46E0CF
:104C200050E0BC0182E0D4CFCF93DF93EC01E9DC0C
:104C300048E050E0BE0181E0CBDF88E0FE01A0ED5E
:104C4000B4E001900D928A95E1F7DF91CF9108953C
:104C500080910B05811107C016D366D38091E200C5
:104C600084608093E200089510920B050895ACDCF7
:104C700081E0B8CC6091080581E0611101C080E05D
:104C800095CC90910C0581E0943009F080E0609122
:104C9000080598CC42E061EC81E071D242E261EC1F
:104CA00082E06DD290910C0581E0943009F080E0B3
:104CB000609108056FCC80910E05893081F148F430
:104CC000823009F496C0833009F457C0813041F036
:104CD00008958A3009F480C08B3009F468C00895C3
:104CE00080910D05813A09F047C08091E800877FE7
:104CF0008093E8008091110590911205892B59F05D
:104D000060E080E090E070E07DD18091E8008B77FA
:104D10008093E800089568E080ED94E0F4CF8091FE
:104D20000D05813249F58091110590911205029788
:104D300018F58091E800877F8093E8008091E80073
:104D400082FF16C02091F3008091F200922F02970B
:104D500031F48091F100813011F0863019F48091A6
:104D6000F10052DC8091E8008B778093E8003BC231
:104D700080910C058111E2CF089580910D05813A53
:104D8000D9F78091110590911205892BA9F780918F
:104D9000E800877F8093E8008091E80080FFFCCFE7
:104DA00030DC8093F1008091E8008E77DECF809137
:104DB0000D05813209F78091110590911205892B1B
:104DC000D9F68091E800877F8093E8000CD280912B
:104DD0000F0508DC0C94090980910D05813261F6FC
:104DE0008091E800877F8093E800FDD180911005D5
:104DF00019CC80910D05813A09F0BECF8091E80071
:104E0000877F8093E8008091E80080FFFCCF15DC6D
:104E1000C8CF84B7877F84BF0FB6F894A8958091D8
:104E20006000886180936000109260000FBE80E88F
:104E300090E00FB6F89480936100909361000FBEEC
:104E4000CFCB21D271D2E2EEF0E08081846080830A
:104E50007894CDC483EC92E07BCA80910C058530B8
:104E600029F480910C05853011F0AACC08957DDCE1
:104E7000EFDB8115B1F380910A05811591F35FD0C5
:104E80000E940909EECF08959A01409113055091AF
:104E9000140500C0492F50E043305105C9F070F4AB
:104EA00041305105E9F14230510571F48BE390E056
:104EB00044EE54E0F9014083518308954132510595
:104EC000E9F04232510519F180E090E040E0F2CF84
:104ED000482F50E0813061F04230510561F0E0EE42
:104EE000F4E04115510581F7849190E0AF01E2CFE4
:104EF000E0EDF4E0F9CFE2EAF4E0F6CF61307105DD
:104F0000A0F011F789E090E04FE055E0D3CF613099
:104F1000710580F0C9F68BE790E041E355E0CACF18
:104F200082E190E04FE155E0C5CF89E090E046EFA7
:104F300054E0C0CF84E490E04CEA55E0BBCF80E180
:104F400089BD82E189BD09B400FEFDCF8091D80002
:104F50008F7D8093D8008091E00082608093E00094
:104F60008091E00081FDFCCF0895AF92BF92CF9277
:104F7000DF92FF920F931F93CF93DF936C01EB01AE
:104F80008A0150D1F82E811123C00115110539F085
:104F9000F80180819181C81BD90BC80ED91EA12CA4
:104FA000B12C2097A9F08091E80085FD21C0809167
:104FB000E8008E778093E80001151105A1F0F80153
:104FC000808191818A0D9B1D8083918385E0F82EDD
:104FD0008F2DDF91CF911F910F91FF90DF90CF9098
:104FE000BF90AF9008951ED18115E9F2F82EF0CF51
:104FF000F60181916F018093F10021978FEFA81A3C
:10500000B80ACFCFFC012091130530911405261763
:10501000370720F06115710569F09B0190E02115BB
:10502000310571F491110CC08091E80082FF38C005
:1050300080E008959091E8009E779093E800EDCF8E
:1050400080910C058115C1F18530C1F18091E80096
:1050500083FD30C08091E80082FDE6CF8091E800BA
:1050600080FFDDCF8091F3004091F200582F211591
:10507000310519F04830510558F091E0483051059C
:1050800009F090E04091E8004E774093E800C7CFE8
:1050900081918093F100215031094F5F5F4FE7CF3D
:1050A00080910C05811541F0853041F08091E80038
:1050B00083FFBACF81E0089582E0089583E00895E8
:1050C000FC0120911305309114052617370720F0B5
:1050D0006115710569F09B0190E02115310571F4AE
:1050E00091110CC08091E80082FF39C080E00895E2
:1050F0008091E8008E778093E800EDCF80910C05D9
:105100008115C9F18530C9F18091E80083FD31C076
:105110008091E80082FDE6CF8091E80080FFDDCF3E
:105120008091F3004091F200582F2115310519F0BC
:105130004830510558F091E04830510509F090E0B1
:105140008091E8008E778093E800C7CF84918093A8
:10515000F1003196215031094F5F5F4FE6CF8091CA
:105160000C05811541F0853041F08091E80083FF06
:10517000B9CF81E0089582E0089583E00895982FE3
:10518000973028F08F708093E90081E00895909324
:10519000E900242F762F50E0981731F07091EC0041
:1051A0002091ED005091F00021FD02C09F5FE8CFFB
:1051B0003091EB003E7F3093EB003091ED003D7F6E
:1051C0003093ED003091EB0031603093EB00709341
:1051D000EC002093ED005093F0002091EE0027FDAD
:1051E000E5CF80E0089580910D0587FF13C0809181
:1051F000E80082FF06C08091E8008B778093E8008A
:10520000089580910C058111F2CF089580910C05CD
:105210008115D9F38091E80080FFF8CF8091E800F4
:105220008E77ECCF2091E4003091E50095E6A9015E
:105230002091EC00822F817020FF06C08091E80051
:1052400080FF06C080E008952091E80022FD1AC08A
:1052500080910C05811589F0853089F08091EB00F3
:1052600085FD0FC02091E4003091E50042175307FF
:10527000F9F29150E1F684E0089582E0089583E028
:10528000089581E008955FD066D0E0EEF0E080817F
:1052900081608083E8ED80818F77808319BCA7EDE2
:1052A000B0E08C918E7F8C9380818F7E8083109272
:1052B0000B050895CF93DF9346D04DD0C8EDD0E0D5
:1052C00088818F77888388818068888388818F7DB3
:1052D000888319BC10920C051092080510920A05DB
:1052E00010920905E0EEF0E080818B7F8083888159
:1052F0008160888342E060E080E041DFE1EEF0E041
:1053000080818E7F8083E2EE8081816080838081D6
:1053100088608083E0EE80818E7F808388818061D9
:105320008883DF91CF910895E8EDF0E080818F7E52
:105330008083E7ED80818160808384E082BF81E0AB
:1053400080930B05B7CFE8EDF0E080818E7F8083FE
:105350001092E20008951092DA001092E100089590
:105360001F920F920FB60F9211242F933F934F93DA
:105370005F936F937F938F939F93AF93BF93EF93BD
:10538000FF938091E10082FF0AC08091E20082FFDA
:1053900006C08091E1008B7F8093E10027D280914D
:1053A000DA0080FF18C08091D80080FF14C080917F
:1053B000DA008E7F8093DA008091D90080FF8FC061
:1053C00080E189BD82E189BD09B400FEFDCF81E0A5
:1053D00080930C053DDC8091E10080FF18C0809136
:1053E000E20080FF14C08091E2008E7F8093E20093
:1053F0008091E20080618093E2008091D800806219
:105400008093D80019BC85E080930C0533DC809133
:10541000E10084FF28C08091E20084FF24C080E185
:1054200089BD82E189BD09B400FEFDCF8091D8001D
:105430008F7D8093D8008091E1008F7E8093E10082
:105440008091E2008F7E8093E2008091E200816093
:105450008093E20080910805811509F445C084E03D
:1054600080930C050EDC8091E10083FF27C08091C2
:10547000E20083FF23C08091E100877F8093E100F9
:1054800082E080930C05109208058091E1008E7FE8
:105490008093E1008091E2008E7F8093E200809112
:1054A000E20080618093E20042E060E080E067DE3D
:1054B0008091F00088608093F000D9DBFF91EF913C
:1054C000BF91AF919F918F917F916F915F914F911C
:1054D0003F912F910F900FBE0F901F90189519BC00
:1054E00010920C05C1DB77CF8091E30087FF02C0EB
:1054F00083E0B6CF81E0B4CF1F920F920FB60F9228
:1055000011241F932F933F934F935F936F937F9338
:105510008F939F93AF93BF93CF93DF93EF93FF93BB
:10552000E9EEF0E080811091EC008F7010FB112704
:1055300017F9182B1082C0EFD0E08881877F88830D
:1055400078941CD0E9EEF0E010828881886088832E
:105550001F701083FF91EF91DF91CF91BF91AF91B9
:105560009F918F917F916F915F914F913F912F917B
:105570001F910F900FBE0F901F901895AAE2B0E0F8
:10558000E3ECFAE286C18DE095E0FC010196209102
:10559000F100208325E085319207B9F78CDB8091FB
:1055A000E80083FF37C080910D0590910E059A3079
:1055B00088F5E92FF0E0E35BF24D56C1803889F0C1
:1055C000823841F5809111058F70873018F58093EE
:1055D000E9008091EB0085FB882780F91092E900B3
:1055E00006C080910A05880F90910905892B90913A
:1055F000E800977F9093E8008093F1001092F1000B
:105600008091E8008E7722C0811115C080910F052E
:10561000813001F18091E80083FF0AC08091E800A9
:10562000877F8093E8008091EB0080628093EB009D
:10563000AA96E3E04AC1823069F780910F0581158F
:1056400079F01092E9008091E800877F8093E8006C
:10565000CADDE0CF933009F080E080930A05F1CFF6
:10566000809111058F70282F2150263098F6809355
:10567000E9002091EB0020FFE4CF933031F48091DA
:10568000EB0080628093EB00DCCF9091EB009061A7
:105690009093EB0021E001C0220F8A95EAF7209356
:1056A000EA001092EA008091EB008860EBCF811154
:1056B000B1CF80910F058F77182F8091E30080780C
:1056C000812B8093E3008091E800877F8093E8003E
:1056D0008ADD8091E80080FFFCCF8091E300806844
:1056E0008093E30083E0111101C082E080930C05F8
:1056F00091CF8058823008F08DCF80910F05909126
:1057000010058C3D23E0920789F583E08A838AE2C5
:1057100089834FB7F894DE01139620E03EE051E212
:10572000E32FF0E050935700849120FF03C082954F
:105730008F703F5F8F708A30B8F0895C8D931D92B7
:105740002F5F243169F74FBF8091E800877F8093F6
:10575000E8006AE270E0CE01019654DC8091E80036
:105760008B778093E80056CF805DE8CF609111057C
:1057700070911205AE014F5F5F4F86DBBC01892B34
:1057800009F448CF9091E800977F9093E8008981D1
:105790009A8196DCE3CF803809F03CCF8091E80015
:1057A000877F8093E800809108058093F10028CFDF
:1057B000811130CF90910F05923008F02BCF80915E
:1057C000E800877F8093E800909308050CDD8091C6
:1057D0000805811529F084E080930C055BDA1ACF67
:1057E0008091E30087FDF7CF81E0F6CF0895CF9356
:1057F00080910C05811591F08091E900C091EC0039
:105800008F70C0FBCC27C7F9C82B1092E90080919C
:10581000E80083FDB3DECF70C093E900CF91089517
:1058200032DD10920C050895E8EDF0E08081806192
:1058300080838AE18A95F1F700C08091D900817058
:10584000089597FB072E16F4009406D077FD08D034
:1058500048D007FC05D03EF4909581959F4F089560
:10586000709561957F4F0895EE0FFF1F0590F4919D
:10587000E02D09942F923F924F925F926F927F9208
:105880008F929F92AF92BF92CF92DF92EF92FF9250
:105890000F931F93CF93DF93CDB7DEB7CA1BDB0BFC
:1058A0000FB6F894DEBF0FBECDBF09942A883988A1
:1058B00048885F846E847D848C849B84AA84B984A8
:1058C000C884DF80EE80FD800C811B81AA81B981B4
:1058D000CE0FD11D0FB6F894DEBF0FBECDBFED01C8
:1058E0000895AA1BBB1B51E107C0AA1FBB1FA61727
:1058F000B70710F0A61BB70B881F991F5A95A9F779
:1059000080959095BC01CD010895FB01DC0104C098
:105910008D910190801921F441505040C8F7881BA7
:10592000990B0895FB01DC0102C001900D924150DA
:105930005040D8F70895F999FECF92BD81BDF89AED
:10594000992780B50895A8E1B0E042E050E020C07A
:10595000262FF999FECF92BD81BDF89A019700B428
:10596000021639F01FBA20BD0FB6F894FA9AF99AC8
:105970000FBE08950396272FECDFEADF252FE9DF1E
:10598000242FE7CF0196272FE4DFE2CFDC01CB0104
:10599000FC01F999FECF06C0F2BDE1BDF89A31963F
:1059A00000B40D9241505040B8F70895F894FFCFDD
:1059B00094039A039E03AA03B003B403B8032B070E
:1059C0002B0762076207B907D50753075307D907A3
:1059D0004B08580858082D1A241A301A211A151A7B
:1059E000151A211A151A151A4C1A151A571A151ABA
:1059F000151A151A151A151A211A151A151A211A17
:105A0000151A3E1A151A151A6C1A6C1A6C1A6C1A99
:105A10006C1A6C1A6C1A6C1A6C1A181A151A2D1A40
:105A20001F1ABD1B2C1CC51B8F1B931BC91B971B4F
:105A3000CD1BD91BA31B251CA71BDD1BAB1BE11B0F
:105A4000061CAF1BE51B0D1CB51BEB1BF31B9B1BA7
:105A5000D11B9F1BD51BB91BEF1BFD1B161C231C49
:105A6000891BC11B331CCC1CD11CD31CD81CE81CAB
:105A7000E81CE81CE81CE81CE81CE81CE81CDA1C14
:105A8000DE1CE11CE61CF51CFB1CFF1C28202E2044
:105A90001920222034203A204020DE2A042B0A2B11
:0E5AA000042B0A2B572B792B0A2BCB2BD82B40
:105AAE00E803737C000000E2032900000000DC0321
:105ABE002B00000000D603E000000000D003E00041
:105ACE00000000CA032A00000000C40301570000B2
